:100000000C9434000C9446000C9446000C94BE00F2
:100010000C9446000C9446000C9446000C94460048
:100020000C9446000C9446000C9446000C94460038
:100030000C9446000C9446000C9446000C94460028
:100040000C9472000C9446000C9446000C944600EC
:100050000C9446000C9446000C9446000C94460008
:100060000C9446000C94460011241FBECFEFD8E03C
:10007000DEBFCDBF21E0A0E0B1E001C01D92A630FF
:10008000B207E1F70E9411010C941E010C940000CC
:100090009FB7F89480910501813009F41EC081E07A
:1000A000809305019FBF95E095BD80936E0090E31E
:1000B00094B98093680080936B009FB7F89415B84B
:1000C00015B820910001309101012115310541F44D
:1000D000809302019FBF7894FFCF9FBF0E941901B8
:1000E0000E9413010F920FB60F921F9211242F93AB
:1000F0003F934F935F936F937F938F939F93AF93B0
:10010000BF93EF93FF9380910001909101018115BE
:10011000910509F031C08FEF9FEF9093010180931B
:10012000000180910301909104018115910509F06E
:1001300023C080910201813041F480E283B9809133
:10014000000190910101019602C080E090E090933F
:10015000010180930001FF91EF91BF91AF919F91B9
:100160008F917F916F915F914F913F912F911F9050
:100170000F900FBE0F9018950E9413010F920FB6AB
:100180000F921F9211242F933F934F935F936F937E
:100190007F938F939F93AF93BF93EF93FF93809140
:1001A0000001909101018115910509F038C08FEF90
:1001B0009FEF909301018093000180910301909142
:1001C00004012FE78F3F920708F029C0FC01319608
:1001D000F0930401E093030120910201213021F406
:1001E00023B121702030D9F420E030E030930101B8
:1001F000209300019093040180930301FF91EF91FC
:10020000BF91AF919F918F917F916F915F914F912E
:100210003F912F911F900F900FBE0F9018950E9445
:1002200013010E9448000E9415010E9417010E94BC
:100230001D010E941B010E941701FFCFF894FFCF00
:00000001FF
