:100000000C9434000C9446000C9446000C9446006A
:100010000C9446000C9446000C9446000C94460048
:100020000C9446000C9446000C9446000C94460038
:100030000C9446000C9446000C9446000C94460028
:100040000C9446000C9446000C9446000C94460018
:100050000C9446000C9446000C9446000C94460008
:100060000C9446000C94460011241FBECFEFD8E03C
:10007000DEBFCDBF21E0A0E0B1E001C01D92A13004
:10008000B207E1F70E946F000C9478000C94000016
:100090008FB7F89490910001913009F41DC091E060
:1000A000909300018FBF80E284B920E030E09FEFA1
:1000B0004FEF5FE3B90185B92F5F3F4F6F4F7F4F20
:1000C00015B8E1E02F3F3907640775070CF0E12D03
:1000D000E170E03081F7F0CF8FBF0E9473000E9483
:1000E00048000E9477000E9475000E947100FFCFB7
:0400F000F894FFCFB2
:00000001FF
