:100000000C9434000C9451000C9451000C942C016D
:100010000C9451000C9451000C9451000C9451001C
:100020000C9451000C9451000C9451000C9451000C
:100030000C9451000C9451000C9451000C945100FC
:100040000C94C4000C9451000C9451000C94510079
:100050000C9451000C9451000C9451000C945100DC
:100060000C9451000C94510011241FBECFEFD8E026
:10007000DEBFCDBF11E0A0E0B1E0EAE6F3E002C0F0
:1000800005900D92A630B107D9F721E0A6E0B1E0C6
:1000900001C01D92AC30B207E1F70E94A6010C949A
:1000A000B3010C9400008FB7F89490910B0191303C
:1000B00009F45FC091E090930B018FBF85E085BD8F
:1000C00090936E0080E384B99093680090936B00E6
:1000D0008FB7F8949FB7F8942091000130910101F7
:1000E0002115310509F043C02FEF3FEF3093010197
:1000F0002093000120910201223019F4E0E0F0E0A9
:100100000AC021E02093680020936B00E091000179
:10011000F09101013196F0930101E09300019FBF3E
:1001200015B815B820910001309101012115310554
:1001300009F01DC01092040120E031E0309303016A
:10014000209302012091060130910701211531050C
:1001500071F491E090930801109205012CEB30E0CE
:1001600030930A01209309018FBF7894FFCF0E943A
:10017000A8018FBF0E94AE01DC0115B815B88C91A3
:1001800091E098279C9308950F920FB60F921F92BB
:1001900011242F933F934F935F936F937F938F938C
:1001A0009F93AF93BF93EF93FF9380910001909142
:1001B00001018115910509F04DC08FEF9FEF9093DC
:1001C0000101809300012091060130910701211562
:1001D000310509F03FC0909307018093060180919B
:1001E0000201823069F08170803019F4909103012E
:1001F00002C09091040180E2903009F480E183B95B
:1002000080910501823019F081E08093080180918E
:1002100006019091070101969093070180930601D2
:1002200080910001909101010196909301018093CA
:100230000001FF91EF91BF91AF919F918F917F91BD
:100240006F915F914F913F912F911F900F900FBE33
:100250000F9018950E94A8010F920FB60F921F924F
:1002600011242F933F934F935F936F937F938F93BB
:100270009F93AF93BF93EF93FF9380910001909171
:1002800001018115910509F05FC08FEF9FEF9093F9
:100290000101809300012091060130910701211591
:1002A000310509F051C0909307018093060180E069
:1002B00090E020910501223009F42CC03091020118
:1002C0003230FC0109F427C080910801813009F027
:1002D0001FC01092080121702030B9F01092050162
:1002E000E0910901F0910A01E115F10589F082E040
:1002F00091E00995E0910001F09101013196809122
:10030000060190910701019606C081E080930501E6
:1003100080E090E0FC01F0930101E09300019093F4
:10032000070180930601FF91EF91BF91AF919F91DB
:100330008F917F916F915F914F913F912F911F907E
:100340000F900FBE0F9018950E94A8010E945300B5
:100350000E94AA010E94AC010E94B2010E94B00159
:0A0360000E94AC01FFCFF894FFCF1C
:06036A0000000200000289
:00000001FF
