:100000000C9434000C9446000C9446000C9446006A
:100010000C9446000C9446000C9446000C94460048
:100020000C9446000C9446000C9446000C94460038
:100030000C9446000C9446000C9446000C94460028
:100040000C946C000C9446000C9446000C944600F2
:100050000C9446000C9446000C9446000C94460008
:100060000C9446000C94460011241FBECFEFD8E03C
:10007000DEBFCDBF21E0A0E0B1E001C01D92A43001
:10008000B207E1F70E94B0000C94BD000C94000090
:100090009FB7F89480910301813009F418C081E082
:1000A000809303019FBF95E095BD80936E009EE312
:1000B00094B99FB7F8942091000130910101211566
:1000C000310541F4809302019FBF7894FFCF9FBF19
:1000D0000E94B8000E94B2000F920FB60F921F92BA
:1000E00011242F933F934F935F936F937F938F933D
:1000F0009F93AF93BF93EF93FF93809100019091F3
:1001000001018115910509F029C08FEF9FEF9093B0
:1001100001018093000180910201813041F480E26D
:1001200083B98091000190910101019602C080E0A5
:1001300090E09093010180930001FF91EF91BF91B6
:10014000AF919F918F917F916F915F914F913F916F
:100150002F911F900F900FBE0F9018950E94B20024
:100160000E9448000E94B4000E94B6000E94BC0099
:0E0170000E94BA000E94B600FFCFF894FFCFA5
:00000001FF
