:100000000C9434000C9451000C9451000C94C200D8
:100010000C9451000C9451000C9451000C9451001C
:100020000C9451000C9451000C9451000C9451000C
:100030000C9451000C9451000C9451000C945100FC
:100040000C947A000C9451000C9451000C945100C3
:100050000C9451000C9451000C9451000C945100DC
:100060000C9451000C94510011241FBECFEFD8E026
:10007000DEBFCDBF11E0A0E0B1E0E6E1F2E002C0FA
:1000800005900D92A230B107D9F721E0A2E0B1E0CE
:1000900001C01D92A530B207E1F70E94FC000C944C
:1000A00009010C9400008FB7F894909104019130ED
:1000B00009F41BC091E0909304018FBF85E085BDDA
:1000C00090936E0080E384B995B98FB7F89415B812
:1000D00015B820910201309103012115310541F439
:1000E000109200018FBF7894FFCF8FBF0E94040150
:1000F0000E94FE000F920FB60F921F9211242F93B1
:100100003F934F935F936F937F938F939F93AF939F
:10011000BF93EF93FF9380910201909103018115AA
:10012000910509F02DC08FEF9FEF9093030180930D
:10013000020190910001923019F480E090E00BC030
:10014000917080E1903009F480E283B980910201DE
:100150009091030101969093030180930201FF9116
:10016000EF91BF91AF919F918F917F916F915F912F
:100170004F913F912F911F900F900FBE0F901895A8
:100180000E94FE000F920FB60F921F9211242F9320
:100190003F934F935F936F937F938F939F93AF930F
:1001A000BF93EF93FF93809102019091030181151A
:1001B000910509F01FC080910001823021F091E08B
:1001C00089278093000180E090E090930301809361
:1001D0000201FF91EF91BF91AF919F918F917F911C
:1001E0006F915F914F913F912F911F900F900FBE94
:1001F0000F9018950E94FE000E9453000E9400017B
:100200000E9402010E9408010E9406010E94020150
:06021000FFCFF894FFCFC0
:020216000200E4
:00000001FF
