:100000000C9434000C9446000C9446000C9446006A
:100010000C9446000C9446000C9446000C94460048
:100020000C9446000C9446000C9446000C94460038
:100030000C9446000C9446000C9446000C94460028
:100040000C9498000C9446000C9446000C944600C6
:100050000C9446000C9446000C9446000C94460008
:100060000C9446000C94460011241FBECFEFD8E03C
:10007000DEBFCDBF21E0A0E0B1E001C01D92A43001
:10008000B207E1F70E94DC000C94E9000C94000038
:100090009FB7F89480910301813019F49FBF0E94AB
:1000A000E40081E0809303019FBF95E095BD8093BC
:1000B0006E0090E394B985B99FB7F89415B815B858
:1000C00020910001309101012115310509F02EC068
:1000D000809302019FBF8FB7F89420910001309167
:1000E00001012115310509F021C02FEF3FEF3093B9
:1000F00001012093000193B190959295907F990F03
:10010000907295B9E0910001F09101013196F09360
:100110000101E09300018FBF8FB7F8944091000177
:10012000509101014115510509F4E1CF0E94DE0013
:100130000F920FB60F921F9211242F933F934F935C
:100140005F936F937F938F939F93AF93BF93EF933F
:10015000FF9380910001909101018115910509F0B3
:1001600029C08FEF9FEF9093010180930001809150
:100170000201813041F480E283B9809100019091C5
:100180000101019602C080E090E09093010180930C
:100190000001FF91EF91BF91AF919F918F917F915E
:1001A0006F915F914F913F912F911F900F900FBED4
:1001B0000F9018950E94DE000E9448000E94E00007
:1001C0000E94E2000E94E8000E94E6000E94E20015
:0601D000FFCFF894FFCF01
:00000001FF
